{"contracts/mocks/MockMezo.sol":{"MockTroveManager":{"abi":[{"inputs":[],"name":"MUSD_GAS_COMPENSATION","outputs":[{"internalType":"uint256","name":"","type":"uint256"}],"stateMutability":"view","type":"function"},{"inputs":[{"internalType":"address","name":"_borrower","type":"address"}],"name":"closeTrove","outputs":[],"stateMutability":"nonpayable","type":"function"},{"inputs":[{"internalType":"address","name":"_borrower","type":"address"}],"name":"getTrove","outputs":[{"internalType":"uint256","name":"coll","type":"uint256"},{"internalType":"uint256","name":"debt","type":"uint256"}],"stateMutability":"view","type":"function"},{"inputs":[{"internalType":"address","name":"_borrower","type":"address"}],"name":"getTroveColl","outputs":[{"internalType":"uint256","name":"","type":"uint256"}],"stateMutability":"view","type":"function"},{"inputs":[{"internalType":"address","name":"_borrower","type":"address"}],"name":"getTroveDebt","outputs":[{"internalType":"uint256","name":"","type":"uint256"}],"stateMutability":"view","type":"function"},{"inputs":[{"internalType":"address","name":"_borrower","type":"address"}],"name":"getTroveStatus","outputs":[{"internalType":"uint256","name":"","type":"uint256"}],"stateMutability":"view","type":"function"},{"inputs":[{"internalType":"address","name":"_borrower","type":"address"},{"internalType":"uint256","name":"_coll","type":"uint256"},{"internalType":"uint256","name":"_debt","type":"uint256"}],"name":"setTrove","outputs":[],"stateMutability":"nonpayable","type":"function"},{"inputs":[{"internalType":"address","name":"","type":"address"}],"name":"troves","outputs":[{"internalType":"uint256","name":"coll","type":"uint256"},{"internalType":"uint256","name":"debt","type":"uint256"},{"internalType":"uint256","name":"status","type":"uint256"}],"stateMutability":"view","type":"function"}],"evm":{"bytecode":{"linkReferences":{},"object":"608060405234801561001057600080fd5b506102f4806100206000396000f3fe608060405234801561001057600080fd5b50600436106100885760003560e01c8063bd28c0f41161005b578063bd28c0f41461015d578063cbd138ae146101a3578063d66a2553146101d7578063febedc741461020357600080fd5b8063043597e91461008d57806321e37801146100e5578063480cd578146101245780637af110ba1461014d575b600080fd5b6100e361009b366004610269565b60408051606081018252928352602080840192835260018483018181526001600160a01b03909616600090815291829052919020925183559051908201559051600290910155565b005b6101116100f336600461029c565b6001600160a01b031660009081526020819052604090206002015490565b6040519081526020015b60405180910390f35b61011161013236600461029c565b6001600160a01b031660009081526020819052604090205490565b610111680ad78ebc5ac620000081565b61018e61016b36600461029c565b6001600160a01b0316600090815260208190526040902080546001909101549091565b6040805192835260208301919091520161011b565b6100e36101b136600461029c565b6001600160a01b0316600090815260208190526040812060028181015581815560010155565b6101116101e536600461029c565b6001600160a01b031660009081526020819052604090206001015490565b61023261021136600461029c565b60006020819052908152604090208054600182015460029092015490919083565b6040805193845260208401929092529082015260600161011b565b80356001600160a01b038116811461026457600080fd5b919050565b60008060006060848603121561027e57600080fd5b6102878461024d565b95602085013595506040909401359392505050565b6000602082840312156102ae57600080fd5b6102b78261024d565b939250505056fea2646970667358221220f157b7693a7088f3202f68f128d7815337ddc1e8333bec681e3a0f73ca0facbe64736f6c63430008140033","opcodes":"PUSH1 0x80 PUSH1 0x40 MSTORE CALLVALUE DUP1 ISZERO PUSH2 0x10 JUMPI PUSH1 0x0 DUP1 REVERT JUMPDEST POP PUSH2 0x2F4 DUP1 PUSH2 0x20 PUSH1 0x0 CODECOPY PUSH1 0x0 RETURN INVALID PUSH1 0x80 PUSH1 0x40 MSTORE CALLVALUE DUP1 ISZERO PUSH2 0x10 JUMPI PUSH1 0x0 DUP1 REVERT JUMPDEST POP PUSH1 0x4 CALLDATASIZE LT PUSH2 0x88 JUMPI PUSH1 0x0 CALLDATALOAD PUSH1 0xE0 SHR DUP1 PUSH4 0xBD28C0F4 GT PUSH2 0x5B JUMPI DUP1 PUSH4 0xBD28C0F4 EQ PUSH2 0x15D JUMPI DUP1 PUSH4 0xCBD138AE EQ PUSH2 0x1A3 JUMPI DUP1 PUSH4 0xD66A2553 EQ PUSH2 0x1D7 JUMPI DUP1 PUSH4 0xFEBEDC74 EQ PUSH2 0x203 JUMPI PUSH1 0x0 DUP1 REVERT JUMPDEST DUP1 PUSH4 0x43597E9 EQ PUSH2 0x8D JUMPI DUP1 PUSH4 0x21E37801 EQ PUSH2 0xE5 JUMPI DUP1 PUSH4 0x480CD578 EQ PUSH2 0x124 JUMPI DUP1 PUSH4 0x7AF110BA EQ PUSH2 0x14D JUMPI JUMPDEST PUSH1 0x0 DUP1 REVERT JUMPDEST PUSH2 0xE3 PUSH2 0x9B CALLDATASIZE PUSH1 0x4 PUSH2 0x269 JUMP JUMPDEST PUSH1 0x40 DUP1 MLOAD PUSH1 0x60 DUP2 ADD DUP3 MSTORE SWAP3 DUP4 MSTORE PUSH1 0x20 DUP1 DUP5 ADD SWAP3 DUP4 MSTORE PUSH1 0x1 DUP5 DUP4 ADD DUP2 DUP2 MSTORE PUSH1 0x1 PUSH1 0x1 PUSH1 0xA0 SHL SUB SWAP1 SWAP7 AND PUSH1 0x0 SWAP1 DUP2 MSTORE SWAP2 DUP3 SWAP1 MSTORE SWAP2 SWAP1 KECCAK256 SWAP3 MLOAD DUP4 SSTORE SWAP1 MLOAD SWAP1 DUP3 ADD SSTORE SWAP1 MLOAD PUSH1 0x2 SWAP1 SWAP2 ADD SSTORE JUMP JUMPDEST STOP JUMPDEST PUSH2 0x111 PUSH2 0xF3 CALLDATASIZE PUSH1 0x4 PUSH2 0x29C JUMP JUMPDEST PUSH1 0x1 PUSH1 0x1 PUSH1 0xA0 SHL SUB AND PUSH1 0x0 SWAP1 DUP2 MSTORE PUSH1 0x20 DUP2 SWAP1 MSTORE PUSH1 0x40 SWAP1 KECCAK256 PUSH1 0x2 ADD SLOAD SWAP1 JUMP JUMPDEST PUSH1 0x40 MLOAD SWAP1 DUP2 MSTORE PUSH1 0x20 ADD JUMPDEST PUSH1 0x40 MLOAD DUP1 SWAP2 SUB SWAP1 RETURN JUMPDEST PUSH2 0x111 PUSH2 0x132 CALLDATASIZE PUSH1 0x4 PUSH2 0x29C JUMP JUMPDEST PUSH1 0x1 PUSH1 0x1 PUSH1 0xA0 SHL SUB AND PUSH1 0x0 SWAP1 DUP2 MSTORE PUSH1 0x20 DUP2 SWAP1 MSTORE PUSH1 0x40 SWAP1 KECCAK256 SLOAD SWAP1 JUMP JUMPDEST PUSH2 0x111 PUSH9 0xAD78EBC5AC6200000 DUP2 JUMP JUMPDEST PUSH2 0x18E PUSH2 0x16B CALLDATASIZE PUSH1 0x4 PUSH2 0x29C JUMP JUMPDEST PUSH1 0x1 PUSH1 0x1 PUSH1 0xA0 SHL SUB AND PUSH1 0x0 SWAP1 DUP2 MSTORE PUSH1 0x20 DUP2 SWAP1 MSTORE PUSH1 0x40 SWAP1 KECCAK256 DUP1 SLOAD PUSH1 0x1 SWAP1 SWAP2 ADD SLOAD SWAP1 SWAP2 JUMP JUMPDEST PUSH1 0x40 DUP1 MLOAD SWAP3 DUP4 MSTORE PUSH1 0x20 DUP4 ADD SWAP2 SWAP1 SWAP2 MSTORE ADD PUSH2 0x11B JUMP JUMPDEST PUSH2 0xE3 PUSH2 0x1B1 CALLDATASIZE PUSH1 0x4 PUSH2 0x29C JUMP JUMPDEST PUSH1 0x1 PUSH1 0x1 PUSH1 0xA0 SHL SUB AND PUSH1 0x0 SWAP1 DUP2 MSTORE PUSH1 0x20 DUP2 SWAP1 MSTORE PUSH1 0x40 DUP2 KECCAK256 PUSH1 0x2 DUP2 DUP2 ADD SSTORE DUP2 DUP2 SSTORE PUSH1 0x1 ADD SSTORE JUMP JUMPDEST PUSH2 0x111 PUSH2 0x1E5 CALLDATASIZE PUSH1 0x4 PUSH2 0x29C JUMP JUMPDEST PUSH1 0x1 PUSH1 0x1 PUSH1 0xA0 SHL SUB AND PUSH1 0x0 SWAP1 DUP2 MSTORE PUSH1 0x20 DUP2 SWAP1 MSTORE PUSH1 0x40 SWAP1 KECCAK256 PUSH1 0x1 ADD SLOAD SWAP1 JUMP JUMPDEST PUSH2 0x232 PUSH2 0x211 CALLDATASIZE PUSH1 0x4 PUSH2 0x29C JUMP JUMPDEST PUSH1 0x0 PUSH1 0x20 DUP2 SWAP1 MSTORE SWAP1 DUP2 MSTORE PUSH1 0x40 SWAP1 KECCAK256 DUP1 SLOAD PUSH1 0x1 DUP3 ADD SLOAD PUSH1 0x2 SWAP1 SWAP3 ADD SLOAD SWAP1 SWAP2 SWAP1 DUP4 JUMP JUMPDEST PUSH1 0x40 DUP1 MLOAD SWAP4 DUP5 MSTORE PUSH1 0x20 DUP5 ADD SWAP3 SWAP1 SWAP3 MSTORE SWAP1 DUP3 ADD MSTORE PUSH1 0x60 ADD PUSH2 0x11B JUMP JUMPDEST DUP1 CALLDATALOAD PUSH1 0x1 PUSH1 0x1 PUSH1 0xA0 SHL SUB DUP2 AND DUP2 EQ PUSH2 0x264 JUMPI PUSH1 0x0 DUP1 REVERT JUMPDEST SWAP2 SWAP1 POP JUMP JUMPDEST PUSH1 0x0 DUP1 PUSH1 0x0 PUSH1 0x60 DUP5 DUP7 SUB SLT ISZERO PUSH2 0x27E JUMPI PUSH1 0x0 DUP1 REVERT JUMPDEST PUSH2 0x287 DUP5 PUSH2 0x24D JUMP JUMPDEST SWAP6 PUSH1 0x20 DUP6 ADD CALLDATALOAD SWAP6 POP PUSH1 0x40 SWAP1 SWAP5 ADD CALLDATALOAD SWAP4 SWAP3 POP POP POP JUMP JUMPDEST PUSH1 0x0 PUSH1 0x20 DUP3 DUP5 SUB SLT ISZERO PUSH2 0x2AE JUMPI PUSH1 0x0 DUP1 REVERT JUMPDEST PUSH2 0x2B7 DUP3 PUSH2 0x24D JUMP JUMPDEST SWAP4 SWAP3 POP POP POP JUMP INVALID LOG2 PUSH5 0x6970667358 0x22 SLT KECCAK256 CALL JUMPI 0xB7 PUSH10 0x3A7088F3202F68F128D7 DUP2 MSTORE8 CALLDATACOPY 0xDD 0xC1 0xE8 CALLER EXTCODESIZE 0xEC PUSH9 0x1E3A0F73CA0FACBE64 PUSH20 0x6F6C634300081400330000000000000000000000 "},"methodIdentifiers":{"MUSD_GAS_COMPENSATION()":"7af110ba","closeTrove(address)":"cbd138ae","getTrove(address)":"bd28c0f4","getTroveColl(address)":"480cd578","getTroveDebt(address)":"d66a2553","getTroveStatus(address)":"21e37801","setTrove(address,uint256,uint256)":"043597e9","troves(address)":"febedc74"}}}}}