{
  "_format": "hh-sol-artifact-1",
  "contractName": "MockSortedTroves",
  "sourceName": "contracts/mocks/MockMezo.sol",
  "abi": [
    {
      "inputs": [
        {
          "internalType": "uint256",
          "name": "",
          "type": "uint256"
        },
        {
          "internalType": "address",
          "name": "",
          "type": "address"
        },
        {
          "internalType": "address",
          "name": "",
          "type": "address"
        }
      ],
      "name": "findInsertPosition",
      "outputs": [
        {
          "internalType": "address",
          "name": "",
          "type": "address"
        },
        {
          "internalType": "address",
          "name": "",
          "type": "address"
        }
      ],
      "stateMutability": "pure",
      "type": "function"
    }
  ],
  "bytecode": "0x608060405234801561001057600080fd5b5060ef8061001f6000396000f3fe6080604052348015600f57600080fd5b506004361060285760003560e01c8063416980dc14602d575b600080fd5b604360383660046082565b600080935093915050565b604080516001600160a01b0393841681529290911660208301520160405180910390f35b80356001600160a01b0381168114607d57600080fd5b919050565b600080600060608486031215609657600080fd5b8335925060a4602085016067565b915060b0604085016067565b9050925092509256fea2646970667358221220799a50804ae515e0c3ad6921597de39a6e7a14b522d9a57dce502a7a653bc29364736f6c63430008140033",
  "linkReferences": {},
  "deployedLinkReferences": {}
}