{
  "_format": "hh-sol-artifact-1",
  "contractName": "MockHintHelpers",
  "sourceName": "contracts/mocks/MockMezo.sol",
  "abi": [
    {
      "inputs": [
        {
          "internalType": "uint256",
          "name": "",
          "type": "uint256"
        },
        {
          "internalType": "uint256",
          "name": "",
          "type": "uint256"
        },
        {
          "internalType": "uint256",
          "name": "",
          "type": "uint256"
        }
      ],
      "name": "getApproxHint",
      "outputs": [
        {
          "internalType": "address",
          "name": "",
          "type": "address"
        },
        {
          "internalType": "uint256",
          "name": "",
          "type": "uint256"
        },
        {
          "internalType": "uint256",
          "name": "",
          "type": "uint256"
        }
      ],
      "stateMutability": "pure",
      "type": "function"
    }
  ],
  "bytecode": "0x608060405234801561001057600080fd5b5060ce8061001f6000396000f3fe6080604052348015600f57600080fd5b506004361060285760003560e01c80637b41bdbe14602d575b600080fd5b60446038366004606d565b50600092839250829150565b604080516001600160a01b03909416845260208401929092529082015260600160405180910390f35b600080600060608486031215608157600080fd5b50508135936020830135935060409092013591905056fea2646970667358221220657a32a6280386201930655addfd4b5ac192e9364833eaad45da981912ae1dd764736f6c63430008140033",
  "linkReferences": {},
  "deployedLinkReferences": {}
}