{
  "_format": "hh-sol-artifact-1",
  "contractName": "MockBorrowerOperations",
  "sourceName": "contracts/mocks/MockMezo.sol",
  "abi": [
    {
      "inputs": [
        {
          "internalType": "address",
          "name": "_musd",
          "type": "address"
        },
        {
          "internalType": "address",
          "name": "_troveManager",
          "type": "address"
        }
      ],
      "stateMutability": "nonpayable",
      "type": "constructor"
    },
    {
      "inputs": [],
      "name": "BORROWING_RATE",
      "outputs": [
        {
          "internalType": "uint256",
          "name": "",
          "type": "uint256"
        }
      ],
      "stateMutability": "view",
      "type": "function"
    },
    {
      "inputs": [
        {
          "internalType": "address",
          "name": "",
          "type": "address"
        },
        {
          "internalType": "address",
          "name": "",
          "type": "address"
        }
      ],
      "name": "addColl",
      "outputs": [],
      "stateMutability": "payable",
      "type": "function"
    },
    {
      "inputs": [],
      "name": "closeTrove",
      "outputs": [],
      "stateMutability": "nonpayable",
      "type": "function"
    },
    {
      "inputs": [
        {
          "internalType": "uint256",
          "name": "_MUSDAmount",
          "type": "uint256"
        }
      ],
      "name": "getBorrowingFee",
      "outputs": [
        {
          "internalType": "uint256",
          "name": "",
          "type": "uint256"
        }
      ],
      "stateMutability": "pure",
      "type": "function"
    },
    {
      "inputs": [],
      "name": "musd",
      "outputs": [
        {
          "internalType": "contract MockMUSD",
          "name": "",
          "type": "address"
        }
      ],
      "stateMutability": "view",
      "type": "function"
    },
    {
      "inputs": [
        {
          "internalType": "uint256",
          "name": "_MUSDAmount",
          "type": "uint256"
        },
        {
          "internalType": "address",
          "name": "",
          "type": "address"
        },
        {
          "internalType": "address",
          "name": "",
          "type": "address"
        }
      ],
      "name": "openTrove",
      "outputs": [],
      "stateMutability": "payable",
      "type": "function"
    },
    {
      "inputs": [
        {
          "internalType": "uint256",
          "name": "_amount",
          "type": "uint256"
        },
        {
          "internalType": "address",
          "name": "",
          "type": "address"
        },
        {
          "internalType": "address",
          "name": "",
          "type": "address"
        }
      ],
      "name": "repayMUSD",
      "outputs": [],
      "stateMutability": "nonpayable",
      "type": "function"
    },
    {
      "inputs": [],
      "name": "troveManagerRef",
      "outputs": [
        {
          "internalType": "contract MockTroveManager",
          "name": "",
          "type": "address"
        }
      ],
      "stateMutability": "view",
      "type": "function"
    },
    {
      "inputs": [
        {
          "internalType": "uint256",
          "name": "_amount",
          "type": "uint256"
        },
        {
          "internalType": "address",
          "name": "",
          "type": "address"
        },
        {
          "internalType": "address",
          "name": "",
          "type": "address"
        }
      ],
      "name": "withdrawColl",
      "outputs": [],
      "stateMutability": "nonpayable",
      "type": "function"
    },
    {
      "stateMutability": "payable",
      "type": "receive"
    }
  ],
  "bytecode": "0x608060405234801561001057600080fd5b50604051610d72380380610d7283398101604081905261002f9161007c565b600080546001600160a01b039384166001600160a01b031991821617909155600180549290931691161790556100af565b80516001600160a01b038116811461007757600080fd5b919050565b6000806040838503121561008f57600080fd5b61009883610060565b91506100a660208401610060565b90509250929050565b610cb4806100be6000396000f3fe60806040526004361061008a5760003560e01c8063631203b011610059578063631203b01461010857806368647db114610128578063cab666d01461013b578063dc283bb314610173578063e5ed4e1e1461019357600080fd5b80630e704d50146100965780632f3a6d98146100ad578063517ef1d7146100c05780635530273c146100e857600080fd5b3661009157005b600080fd5b3480156100a257600080fd5b506100ab6101b3565b005b6100ab6100bb366004610afa565b61043d565b3480156100cc57600080fd5b506100d5600181565b6040519081526020015b60405180910390f35b3480156100f457600080fd5b506100ab610103366004610afa565b610638565b34801561011457600080fd5b506100d5610123366004610b36565b6107ed565b6100ab610136366004610b4f565b61080d565b34801561014757600080fd5b5060005461015b906001600160a01b031681565b6040516001600160a01b0390911681526020016100df565b34801561017f57600080fd5b506100ab61018e366004610afa565b610935565b34801561019f57600080fd5b5060015461015b906001600160a01b031681565b600154604051632f4a303d60e21b815233600482015260009182916001600160a01b039091169063bd28c0f4906024016040805180830381865afa1580156101ff573d6000803e3d6000fd5b505050506040513d601f19601f820116820180604052508101906102239190610b82565b915091506000600160009054906101000a90046001600160a01b03166001600160a01b0316637af110ba6040518163ffffffff1660e01b8152600401602060405180830381865afa15801561027c573d6000803e3d6000fd5b505050506040513d601f19601f820116820180604052508101906102a09190610ba6565b905060008183116102b157826102bb565b6102bb8284610bd5565b90508015610340576000546040516323b872dd60e01b8152336004820152306024820152604481018390526001600160a01b03909116906323b872dd906064016020604051808303816000875af115801561031a573d6000803e3d6000fd5b505050506040513d601f19601f8201168201806040525081019061033e9190610be8565b505b6001546040516365e89c5760e11b81523360048201526001600160a01b039091169063cbd138ae90602401600060405180830381600087803b15801561038557600080fd5b505af1158015610399573d6000803e3d6000fd5b50505050600084111561043757604051600090339086908381818185875af1925050503d80600081146103e8576040519150601f19603f3d011682016040523d82523d6000602084013e6103ed565b606091505b50509050806104355760405162461bcd60e51b815260206004820152600f60248201526e151c985b9cd9995c8819985a5b1959608a1b60448201526064015b60405180910390fd5b505b50505050565b6000341161047d5760405162461bcd60e51b815260206004820152600d60248201526c139bc818dbdb1b185d195c985b609a1b604482015260640161042c565b600083116104b75760405162461bcd60e51b8152602060048201526007602482015266139bc81919589d60ca1b604482015260640161042c565b60006103e86104c7600186610c11565b6104d19190610c28565b90506000600160009054906101000a90046001600160a01b03166001600160a01b0316637af110ba6040518163ffffffff1660e01b8152600401602060405180830381865afa158015610528573d6000803e3d6000fd5b505050506040513d601f19601f8201168201806040525081019061054c9190610ba6565b905060008161055b8488610c4a565b6105659190610c4a565b60015460405163043597e960e01b81529192506001600160a01b03169063043597e99061059a90339034908690600401610c5d565b600060405180830381600087803b1580156105b457600080fd5b505af11580156105c8573d6000803e3d6000fd5b50506000546040516340c10f1960e01b8152336004820152602481018a90526001600160a01b0390911692506340c10f199150604401600060405180830381600087803b15801561061857600080fd5b505af115801561062c573d6000803e3d6000fd5b50505050505050505050565b600154604051632f4a303d60e21b815233600482015260009182916001600160a01b039091169063bd28c0f4906024016040805180830381865afa158015610684573d6000803e3d6000fd5b505050506040513d601f19601f820116820180604052508101906106a89190610b82565b91509150848210156106ee5760405162461bcd60e51b815260206004820152600f60248201526e139bdd08195b9bdd59da0818dbdb1b608a1b604482015260640161042c565b6001546001600160a01b031663043597e93361070a8886610bd5565b846040518463ffffffff1660e01b815260040161072993929190610c5d565b600060405180830381600087803b15801561074357600080fd5b505af1158015610757573d6000803e3d6000fd5b50506040516000925033915087908381818185875af1925050503d806000811461079d576040519150601f19603f3d011682016040523d82523d6000602084013e6107a2565b606091505b50509050806107e55760405162461bcd60e51b815260206004820152600f60248201526e151c985b9cd9995c8819985a5b1959608a1b604482015260640161042c565b505050505050565b60006103e86107fd600184610c11565b6108079190610c28565b92915050565b6000341161084d5760405162461bcd60e51b815260206004820152600d60248201526c139bc818dbdb1b185d195c985b609a1b604482015260640161042c565b600154604051632f4a303d60e21b815233600482015260009182916001600160a01b039091169063bd28c0f4906024016040805180830381865afa158015610899573d6000803e3d6000fd5b505050506040513d601f19601f820116820180604052508101906108bd9190610b82565b60015491935091506001600160a01b031663043597e9336108de3486610c4a565b846040518463ffffffff1660e01b81526004016108fd93929190610c5d565b600060405180830381600087803b15801561091757600080fd5b505af115801561092b573d6000803e3d6000fd5b5050505050505050565b600154604051632f4a303d60e21b815233600482015260009182916001600160a01b039091169063bd28c0f4906024016040805180830381865afa158015610981573d6000803e3d6000fd5b505050506040513d601f19601f820116820180604052508101906109a59190610b82565b91509150848110156109ee5760405162461bcd60e51b815260206004820152601260248201527114995c185e48195e18d959591cc81919589d60721b604482015260640161042c565b6000546040516323b872dd60e01b8152336004820152306024820152604481018790526001600160a01b03909116906323b872dd906064016020604051808303816000875af1158015610a45573d6000803e3d6000fd5b505050506040513d601f19601f82011682018060405250810190610a699190610be8565b506001546001600160a01b031663043597e93384610a878986610bd5565b6040518463ffffffff1660e01b8152600401610aa593929190610c5d565b600060405180830381600087803b158015610abf57600080fd5b505af1158015610ad3573d6000803e3d6000fd5b505050505050505050565b80356001600160a01b0381168114610af557600080fd5b919050565b600080600060608486031215610b0f57600080fd5b83359250610b1f60208501610ade565b9150610b2d60408501610ade565b90509250925092565b600060208284031215610b4857600080fd5b5035919050565b60008060408385031215610b6257600080fd5b610b6b83610ade565b9150610b7960208401610ade565b90509250929050565b60008060408385031215610b9557600080fd5b505080516020909101519092909150565b600060208284031215610bb857600080fd5b5051919050565b634e487b7160e01b600052601160045260246000fd5b8181038181111561080757610807610bbf565b600060208284031215610bfa57600080fd5b81518015158114610c0a57600080fd5b9392505050565b808202811582820484141761080757610807610bbf565b600082610c4557634e487b7160e01b600052601260045260246000fd5b500490565b8082018082111561080757610807610bbf565b6001600160a01b03939093168352602083019190915260408201526060019056fea2646970667358221220d4687d3696bfa59d111240732c87e641a2ffdd0e6ddf7cb35f58f0cba3bd65a664736f6c63430008140033",
  "linkReferences": {},
  "deployedLinkReferences": {}
}