{
  "_format": "hh-sol-artifact-1",
  "contractName": "MockTroveManager",
  "sourceName": "contracts/mocks/MockMezo.sol",
  "abi": [
    {
      "inputs": [],
      "name": "MUSD_GAS_COMPENSATION",
      "outputs": [
        {
          "internalType": "uint256",
          "name": "",
          "type": "uint256"
        }
      ],
      "stateMutability": "view",
      "type": "function"
    },
    {
      "inputs": [
        {
          "internalType": "address",
          "name": "_borrower",
          "type": "address"
        }
      ],
      "name": "closeTrove",
      "outputs": [],
      "stateMutability": "nonpayable",
      "type": "function"
    },
    {
      "inputs": [
        {
          "internalType": "address",
          "name": "_borrower",
          "type": "address"
        }
      ],
      "name": "getTrove",
      "outputs": [
        {
          "internalType": "uint256",
          "name": "coll",
          "type": "uint256"
        },
        {
          "internalType": "uint256",
          "name": "debt",
          "type": "uint256"
        }
      ],
      "stateMutability": "view",
      "type": "function"
    },
    {
      "inputs": [
        {
          "internalType": "address",
          "name": "_borrower",
          "type": "address"
        }
      ],
      "name": "getTroveColl",
      "outputs": [
        {
          "internalType": "uint256",
          "name": "",
          "type": "uint256"
        }
      ],
      "stateMutability": "view",
      "type": "function"
    },
    {
      "inputs": [
        {
          "internalType": "address",
          "name": "_borrower",
          "type": "address"
        }
      ],
      "name": "getTroveDebt",
      "outputs": [
        {
          "internalType": "uint256",
          "name": "",
          "type": "uint256"
        }
      ],
      "stateMutability": "view",
      "type": "function"
    },
    {
      "inputs": [
        {
          "internalType": "address",
          "name": "_borrower",
          "type": "address"
        }
      ],
      "name": "getTroveStatus",
      "outputs": [
        {
          "internalType": "uint256",
          "name": "",
          "type": "uint256"
        }
      ],
      "stateMutability": "view",
      "type": "function"
    },
    {
      "inputs": [
        {
          "internalType": "address",
          "name": "_borrower",
          "type": "address"
        },
        {
          "internalType": "uint256",
          "name": "_coll",
          "type": "uint256"
        },
        {
          "internalType": "uint256",
          "name": "_debt",
          "type": "uint256"
        }
      ],
      "name": "setTrove",
      "outputs": [],
      "stateMutability": "nonpayable",
      "type": "function"
    },
    {
      "inputs": [
        {
          "internalType": "address",
          "name": "",
          "type": "address"
        }
      ],
      "name": "troves",
      "outputs": [
        {
          "internalType": "uint256",
          "name": "coll",
          "type": "uint256"
        },
        {
          "internalType": "uint256",
          "name": "debt",
          "type": "uint256"
        },
        {
          "internalType": "uint256",
          "name": "status",
          "type": "uint256"
        }
      ],
      "stateMutability": "view",
      "type": "function"
    }
  ],
  "bytecode": "0x608060405234801561001057600080fd5b506102f4806100206000396000f3fe608060405234801561001057600080fd5b50600436106100885760003560e01c8063bd28c0f41161005b578063bd28c0f41461015d578063cbd138ae146101a3578063d66a2553146101d7578063febedc741461020357600080fd5b8063043597e91461008d57806321e37801146100e5578063480cd578146101245780637af110ba1461014d575b600080fd5b6100e361009b366004610269565b60408051606081018252928352602080840192835260018483018181526001600160a01b03909616600090815291829052919020925183559051908201559051600290910155565b005b6101116100f336600461029c565b6001600160a01b031660009081526020819052604090206002015490565b6040519081526020015b60405180910390f35b61011161013236600461029c565b6001600160a01b031660009081526020819052604090205490565b610111680ad78ebc5ac620000081565b61018e61016b36600461029c565b6001600160a01b0316600090815260208190526040902080546001909101549091565b6040805192835260208301919091520161011b565b6100e36101b136600461029c565b6001600160a01b0316600090815260208190526040812060028181015581815560010155565b6101116101e536600461029c565b6001600160a01b031660009081526020819052604090206001015490565b61023261021136600461029c565b60006020819052908152604090208054600182015460029092015490919083565b6040805193845260208401929092529082015260600161011b565b80356001600160a01b038116811461026457600080fd5b919050565b60008060006060848603121561027e57600080fd5b6102878461024d565b95602085013595506040909401359392505050565b6000602082840312156102ae57600080fd5b6102b78261024d565b939250505056fea2646970667358221220f157b7693a7088f3202f68f128d7815337ddc1e8333bec681e3a0f73ca0facbe64736f6c63430008140033",
  "linkReferences": {},
  "deployedLinkReferences": {}
}