{
  "_format": "hh-sol-artifact-1",
  "contractName": "BTCVaultFactory",
  "sourceName": "contracts/BTCVaultFactory.sol",
  "abi": [
    {
      "inputs": [
        {
          "internalType": "address",
          "name": "_admin",
          "type": "address"
        },
        {
          "internalType": "address",
          "name": "_borrowerOperations",
          "type": "address"
        },
        {
          "internalType": "address",
          "name": "_troveManager",
          "type": "address"
        },
        {
          "internalType": "address",
          "name": "_sortedTroves",
          "type": "address"
        },
        {
          "internalType": "address",
          "name": "_hintHelpers",
          "type": "address"
        },
        {
          "internalType": "address",
          "name": "_musdToken",
          "type": "address"
        }
      ],
      "stateMutability": "nonpayable",
      "type": "constructor"
    },
    {
      "inputs": [],
      "name": "NotAdmin",
      "type": "error"
    },
    {
      "inputs": [],
      "name": "ZeroAddress",
      "type": "error"
    },
    {
      "anonymous": false,
      "inputs": [
        {
          "indexed": false,
          "internalType": "address",
          "name": "borrowerOperations",
          "type": "address"
        },
        {
          "indexed": false,
          "internalType": "address",
          "name": "troveManager",
          "type": "address"
        }
      ],
      "name": "MezoDefaultsUpdated",
      "type": "event"
    },
    {
      "anonymous": false,
      "inputs": [
        {
          "indexed": true,
          "internalType": "address",
          "name": "vault",
          "type": "address"
        },
        {
          "indexed": true,
          "internalType": "address",
          "name": "creator",
          "type": "address"
        },
        {
          "indexed": false,
          "internalType": "address[]",
          "name": "owners",
          "type": "address[]"
        },
        {
          "indexed": false,
          "internalType": "uint256",
          "name": "requiredSignatures",
          "type": "uint256"
        }
      ],
      "name": "VaultCreated",
      "type": "event"
    },
    {
      "inputs": [],
      "name": "admin",
      "outputs": [
        {
          "internalType": "address",
          "name": "",
          "type": "address"
        }
      ],
      "stateMutability": "view",
      "type": "function"
    },
    {
      "inputs": [
        {
          "internalType": "address[]",
          "name": "_owners",
          "type": "address[]"
        },
        {
          "internalType": "enum BTCVault.Role[]",
          "name": "_roles",
          "type": "uint8[]"
        },
        {
          "internalType": "uint256",
          "name": "_minSignatures",
          "type": "uint256"
        }
      ],
      "name": "createVault",
      "outputs": [
        {
          "internalType": "address",
          "name": "vault",
          "type": "address"
        }
      ],
      "stateMutability": "nonpayable",
      "type": "function"
    },
    {
      "inputs": [],
      "name": "defaultBorrowerOperations",
      "outputs": [
        {
          "internalType": "address",
          "name": "",
          "type": "address"
        }
      ],
      "stateMutability": "view",
      "type": "function"
    },
    {
      "inputs": [],
      "name": "defaultHintHelpers",
      "outputs": [
        {
          "internalType": "address",
          "name": "",
          "type": "address"
        }
      ],
      "stateMutability": "view",
      "type": "function"
    },
    {
      "inputs": [],
      "name": "defaultMusdToken",
      "outputs": [
        {
          "internalType": "address",
          "name": "",
          "type": "address"
        }
      ],
      "stateMutability": "view",
      "type": "function"
    },
    {
      "inputs": [],
      "name": "defaultSortedTroves",
      "outputs": [
        {
          "internalType": "address",
          "name": "",
          "type": "address"
        }
      ],
      "stateMutability": "view",
      "type": "function"
    },
    {
      "inputs": [],
      "name": "defaultTroveManager",
      "outputs": [
        {
          "internalType": "address",
          "name": "",
          "type": "address"
        }
      ],
      "stateMutability": "view",
      "type": "function"
    },
    {
      "inputs": [],
      "name": "getAllVaults",
      "outputs": [
        {
          "internalType": "address[]",
          "name": "",
          "type": "address[]"
        }
      ],
      "stateMutability": "view",
      "type": "function"
    },
    {
      "inputs": [
        {
          "internalType": "address",
          "name": "creator",
          "type": "address"
        }
      ],
      "name": "getVaultsByCreator",
      "outputs": [
        {
          "internalType": "address[]",
          "name": "",
          "type": "address[]"
        }
      ],
      "stateMutability": "view",
      "type": "function"
    },
    {
      "inputs": [
        {
          "internalType": "address",
          "name": "",
          "type": "address"
        }
      ],
      "name": "isVault",
      "outputs": [
        {
          "internalType": "bool",
          "name": "",
          "type": "bool"
        }
      ],
      "stateMutability": "view",
      "type": "function"
    },
    {
      "inputs": [
        {
          "internalType": "address",
          "name": "_borrowerOperations",
          "type": "address"
        },
        {
          "internalType": "address",
          "name": "_troveManager",
          "type": "address"
        },
        {
          "internalType": "address",
          "name": "_sortedTroves",
          "type": "address"
        },
        {
          "internalType": "address",
          "name": "_hintHelpers",
          "type": "address"
        },
        {
          "internalType": "address",
          "name": "_musdToken",
          "type": "address"
        }
      ],
      "name": "setMezoDefaults",
      "outputs": [],
      "stateMutability": "nonpayable",
      "type": "function"
    },
    {
      "inputs": [],
      "name": "totalVaults",
      "outputs": [
        {
          "internalType": "uint256",
          "name": "",
          "type": "uint256"
        }
      ],
      "stateMutability": "view",
      "type": "function"
    },
    {
      "inputs": [
        {
          "internalType": "uint256",
          "name": "",
          "type": "uint256"
        }
      ],
      "name": "vaults",
      "outputs": [
        {
          "internalType": "address",
          "name": "",
          "type": "address"
        }
      ],
      "stateMutability": "view",
      "type": "function"
    },
    {
      "inputs": [
        {
          "internalType": "address",
          "name": "",
          "type": "address"
        },
        {
          "internalType": "uint256",
          "name": "",
          "type": "uint256"
        }
      ],
      "name": "vaultsByCreator",
      "outputs": [
        {
          "internalType": "address",
          "name": "",
          "type": "address"
        }
      ],
      "stateMutability": "view",
      "type": "function"
    }
  ],
  "bytecode": "0x608060405234801561001057600080fd5b506040516130d83803806130d883398101604081905261002f916100e4565b6001600160a01b0386166100565760405163d92e233d60e01b815260040160405180910390fd5b600080546001600160a01b03199081166001600160a01b0398891617909155600180548216968816969096179095556002805486169487169490941790935560038054851692861692909217909155600480548416918516919091179055600580549092169216919091179055610158565b80516001600160a01b03811681146100df57600080fd5b919050565b60008060008060008060c087890312156100fd57600080fd5b610106876100c8565b9550610114602088016100c8565b9450610122604088016100c8565b9350610130606088016100c8565b925061013e608088016100c8565b915061014c60a088016100c8565b90509295509295509295565b612f71806101676000396000f3fe608060405234801561001057600080fd5b50600436106100ea5760003560e01c80638d6540231161008c578063d0f8d07e11610066578063d0f8d07e146101ea578063f4c4a57b146101fd578063f851a44014610210578063fb4d48871461022357600080fd5b80638d654023146101b157806397331bf9146101c2578063be8335aa146101d757600080fd5b8063652b9b41116100c8578063652b9b411461014557806371e8c36214610178578063828986f11461018b5780638c64ea4a1461019e57600080fd5b806308714df4146100ef578063259633511461011f5780633ff399a814610132575b600080fd5b6101026100fd36600461069b565b610238565b6040516001600160a01b0390911681526020015b60405180910390f35b600154610102906001600160a01b031681565b600354610102906001600160a01b031681565b61016861015336600461072b565b60086020526000908152604090205460ff1681565b6040519015158152602001610116565b600254610102906001600160a01b031681565b61010261019936600461074d565b610443565b6101026101ac366004610777565b61047b565b600654604051908152602001610116565b6101ca6104a5565b6040516101169190610790565b600554610102906001600160a01b031681565b6101ca6101f836600461072b565b610507565b600454610102906001600160a01b031681565b600054610102906001600160a01b031681565b6102366102313660046107dd565b61057d565b005b60008060405161024790610642565b604051809103906000f080158015610263573d6000803e3d6000fd5b506040516308dede8160e31b81529091506001600160a01b038216906346f6f4089061029b908a908a908a908a908a90600401610889565b600060405180830381600087803b1580156102b557600080fd5b505af11580156102c9573d6000803e3d6000fd5b50506001546001600160a01b031615915061036f90505760015460025460035460048054600554604051633ba3e7fb60e01b81526001600160a01b0396871693810193909352938516602483015291841660448201529083166064820152908216608482015290821690633ba3e7fb9060a401600060405180830381600087803b15801561035657600080fd5b505af115801561036a573d6000803e3d6000fd5b505050505b6006805460018181019092557ff652222313e28459528d920b65115c16c04f3efc82aaedc97be59f3f377c0d3f0180546001600160a01b0384166001600160a01b0319918216811790925533600081815260076020908152604080832080548089018255908452828420018054909516861790945584825260089052829020805460ff19169094179093555192935083927f4c2ed11344daf1f851281e31c89c8f624ed610a18149300fc5d66eb9a23c279e90610431908b908b9089906108f4565b60405180910390a35095945050505050565b6007602052816000526040600020818154811061045f57600080fd5b6000918252602090912001546001600160a01b03169150829050565b6006818154811061048b57600080fd5b6000918252602090912001546001600160a01b0316905081565b606060068054806020026020016040519081016040528092919081815260200182805480156104fd57602002820191906000526020600020905b81546001600160a01b031681526001909101906020018083116104df575b5050505050905090565b6001600160a01b03811660009081526007602090815260409182902080548351818402810184019094528084526060939283018282801561057157602002820191906000526020600020905b81546001600160a01b03168152600190910190602001808311610553575b50505050509050919050565b6000546001600160a01b031633146105a857604051637bfa4b9f60e01b815260040160405180910390fd5b600180546001600160a01b03199081166001600160a01b0388811691821790935560028054831688851690811790915560038054841688861617905560048054841687861617905560058054909316938516939093179091556040805191825260208201929092527fc15acf4447d0ba2f688c1185c80bc86da2f24ec13fadebf723b15b4256bd8536910160405180910390a15050505050565b6126238061091983390190565b60008083601f84011261066157600080fd5b50813567ffffffffffffffff81111561067957600080fd5b6020830191508360208260051b850101111561069457600080fd5b9250929050565b6000806000806000606086880312156106b357600080fd5b853567ffffffffffffffff808211156106cb57600080fd5b6106d789838a0161064f565b909750955060208801359150808211156106f057600080fd5b506106fd8882890161064f565b96999598509660400135949350505050565b80356001600160a01b038116811461072657600080fd5b919050565b60006020828403121561073d57600080fd5b6107468261070f565b9392505050565b6000806040838503121561076057600080fd5b6107698361070f565b946020939093013593505050565b60006020828403121561078957600080fd5b5035919050565b6020808252825182820181905260009190848201906040850190845b818110156107d15783516001600160a01b0316835292840192918401916001016107ac565b50909695505050505050565b600080600080600060a086880312156107f557600080fd5b6107fe8661070f565b945061080c6020870161070f565b935061081a6040870161070f565b92506108286060870161070f565b91506108366080870161070f565b90509295509295909350565b8183526000602080850194508260005b8581101561087e576001600160a01b0361086b8361070f565b1687529582019590820190600101610852565b509495945050505050565b60608152600061089d606083018789610842565b828103602084810191909152858252869181016000805b888110156108dc578435600381106108ca578283fd5b835293830193918301916001016108b4565b50508093505050508260408301529695505050505050565b604081526000610908604083018587610842565b905082602083015294935050505056fe608060405234801561001057600080fd5b506001600081905580546001600160a01b031916331790556125ec806100376000396000f3fe6080604052600436106102135760003560e01c806378bef5ce11610118578063ab4ae28c116100a0578063c7f758a81161006f578063c7f758a81461068d578063d0e30db0146106bf578063d5f39488146106c7578063def79ab5146106e7578063fe0d94c11461070757600080fd5b8063ab4ae28c14610617578063ae9187541461062c578063b736c44f1461064c578063b759f9541461066d57600080fd5b80638d068043116100e75780638d0680431461057a57806399374642146105905780639d78d46b146105c0578063a0e67e2b146105e0578063a71d594a1461060257600080fd5b806378bef5ce146104e557806378f3ef22146105055780637910867b146105255780637af896ca1461055a57600080fd5b80633ba3e7fb1161019b57806346f6f4081161016a57806346f6f4081461041a578063589de5df1461043a578063709df8d91461045a5780637743007d1461049557806377553ad4146104c557600080fd5b80633ba3e7fb1461035c5780633d83908a1461037c57806340e58ee5146103b457806344276733146103d457600080fd5b80630f774312116101e25780630f774312146102bb578063158ef93e146102d05780632ab09d14146103015780632f54bf6e14610317578063339689421461034757600080fd5b80630b8bb146146102545780630bf6cc081461027c5780630db026221461028f5780630e704d50146102a457600080fd5b3661024f5760405134815233907f2da466a7b24304f47e87fa2e1e5a81b9831ce54fec19055ce277ca2f39ba42c49060200160405180910390a2005b600080fd5b34801561026057600080fd5b50610269600a81565b6040519081526020015b60405180910390f35b34801561028857600080fd5b5047610269565b34801561029b57600080fd5b50600654610269565b3480156102b057600080fd5b506102b9610727565b005b3480156102c757600080fd5b50610269610945565b3480156102dc57600080fd5b506001546102f190600160a01b900460ff1681565b6040519015158152602001610273565b34801561030d57600080fd5b5061026960035481565b34801561032357600080fd5b506102f1610332366004612156565b60046020526000908152604090205460ff1681565b34801561035357600080fd5b506102696109d1565b34801561036857600080fd5b506102b961037736600461217a565b610a1b565b34801561038857600080fd5b50600a5461039c906001600160a01b031681565b6040516001600160a01b039091168152602001610273565b3480156103c057600080fd5b506102b96103cf3660046121eb565b610bba565b3480156103e057600080fd5b5061040d6103ef366004612156565b6001600160a01b031660009081526005602052604090205460ff1690565b604051610273919061221a565b34801561042657600080fd5b506102b961043536600461228e565b610cb3565b34801561044657600080fd5b50610269610455366004612302565b610f55565b34801561046657600080fd5b506102f161047536600461232e565b600860209081526000928352604080842090915290825290205460ff1681565b3480156104a157600080fd5b506102696104b03660046121eb565b60009081526007602052604090206002015490565b3480156104d157600080fd5b5060095461039c906001600160a01b031681565b3480156104f157600080fd5b50600c5461039c906001600160a01b031681565b34801561051157600080fd5b506102b96105203660046121eb565b61105f565b34801561053157600080fd5b506102f16105403660046121eb565b600280546000928352600760205260409092200154101590565b34801561056657600080fd5b506102b961057536600461235e565b6114f0565b34801561058657600080fd5b5061026960025481565b34801561059c57600080fd5b5061040d6105ab366004612156565b60056020526000908152604090205460ff1681565b3480156105cc57600080fd5b50600d5461039c906001600160a01b031681565b3480156105ec57600080fd5b506105f5611929565b60405161027391906123c4565b34801561060e57600080fd5b5061026961198b565b34801561062357600080fd5b506102f16119d5565b34801561063857600080fd5b50600b5461039c906001600160a01b031681565b34801561065857600080fd5b50600d546102f190600160a01b900460ff1681565b34801561067957600080fd5b506102b96106883660046121eb565b611a63565b34801561069957600080fd5b506106ad6106a83660046121eb565b611bd9565b604051610273969594939291906123d7565b6102b9611c94565b3480156106d357600080fd5b5060015461039c906001600160a01b031681565b3480156106f357600080fd5b5061039c6107023660046121eb565b611cfc565b34801561071357600080fd5b506102b96107223660046121eb565b611d26565b3360009081526004602052604090205460ff16610757576040516330cd747160e01b815260040160405180910390fd5b61075f611f0d565b600d54600160a01b900460ff16610789576040516310cf980d60e21b815260040160405180910390fd5b600a546040516321e3780160e01b81523060048201526000916001600160a01b0316906321e3780190602401602060405180830381865afa1580156107d2573d6000803e3d6000fd5b505050506040513d601f19601f820116820180604052508101906107f6919061241c565b9050806001146108195760405163019dc6e560e11b815260040160405180910390fd5b600a5460405163d66a255360e01b81523060048201526000916001600160a01b03169063d66a255390602401602060405180830381865afa158015610862573d6000803e3d6000fd5b505050506040513d601f19601f82011682018060405250810190610886919061241c565b600954600d549192506108a6916001600160a01b03908116911683611f37565b600960009054906101000a90046001600160a01b03166001600160a01b0316630e704d506040518163ffffffff1660e01b8152600401600060405180830381600087803b1580156108f657600080fd5b505af115801561090a573d6000803e3d6000fd5b50506040517fb2e59ec2d314bc8ad85465075529bf2c37a3d58915d6163905b85cb041394d1e925060009150a150506109436001600055565b565b600d54600090600160a01b900460ff1661095f5750600090565b600a546040516309019aaf60e31b81523060048201526001600160a01b039091169063480cd578906024015b602060405180830381865afa1580156109a8573d6000803e3d6000fd5b505050506040513d601f19601f820116820180604052508101906109cc919061241c565b905090565b600d54600090600160a01b900460ff166109eb5750600090565b600d546040516370a0823160e01b81523060048201526001600160a01b03909116906370a082319060240161098b565b3360009081526004602052604090205460ff16158015610a4657506001546001600160a01b03163314155b15610a64576040516330cd747160e01b815260040160405180910390fd5b600d54600160a01b900460ff1615610a8e5760405162dc149f60e41b815260040160405180910390fd5b6001600160a01b0385161580610aab57506001600160a01b038416155b80610abd57506001600160a01b038316155b80610acf57506001600160a01b038216155b80610ae157506001600160a01b038116155b15610aff5760405163d92e233d60e01b815260040160405180910390fd5b600980546001600160a01b038781166001600160a01b03199283168117909355600a80548883169084168117909155600b80548884169085168117909155600c8054888516951685179055600d80546001600160a81b031916938716938417600160a01b17905560408051958652602086019290925290840152606083019190915260808201527ff7c19ca741373d27e9997ed829094332edca9232398f64f260956508ce13c8189060a00160405180910390a15050505050565b3360009081526004602052604090205460ff16610bea576040516330cd747160e01b815260040160405180910390fd5b600081815260076020526040902080546001600160a01b0316610c205760405163635e873760e01b815260040160405180910390fd5b600381015460ff1615610c4657604051630dc1019760e01b815260040160405180910390fd5b6003810154610100900460ff1615610c71576040516354e3762560e01b815260040160405180910390fd5b60038101805461ff001916610100179055604051339083907f74c34a008ce735d9fcf0bd03a9b238d212ad4c441c020661f4ffbb6442645b8590600090a35050565b600154600160a01b900460ff1615610cdd5760405162dc149f60e41b815260040160405180910390fd5b6001546001600160a01b03163314610d08576040516330cd747160e01b815260040160405180910390fd5b83801580610d165750600a81115b15610d345760405163f0336e2d60e01b815260040160405180910390fd5b828114610d545760405163f0336e2d60e01b815260040160405180910390fd5b811580610d6057508082115b15610d7e5760405163aabd5a0960e01b815260040160405180910390fd5b60005b81811015610ef8576000878783818110610d9d57610d9d612435565b9050602002016020810190610db29190612156565b90506001600160a01b038116610ddb5760405163d92e233d60e01b815260040160405180910390fd5b6001600160a01b03811660009081526004602052604090205460ff1615610e1557604051632f1ef11560e21b815260040160405180910390fd5b6001600160a01b0381166000908152600460205260409020805460ff19166001179055858583818110610e4a57610e4a612435565b9050602002016020810190610e5f919061244b565b6001600160a01b0382166000908152600560205260409020805460ff19166001836002811115610e9157610e91612204565b0217905550600680546001810182556000919091527ff652222313e28459528d920b65115c16c04f3efc82aaedc97be59f3f377c0d3f0180546001600160a01b0319166001600160a01b039290921691909117905580610ef081612482565b915050610d81565b5060028290556001805460ff60a01b1916600160a01b1790556040517f7118b718dd8b5de87e326f79aafba10ba9ae5fbce91a0e45e65230b3181bf62c90610f459088908890869061249b565b60405180910390a1505050505050565b3360009081526004602052604081205460ff16610f85576040516330cd747160e01b815260040160405180910390fd5b6001600160a01b038316610fac5760405163d92e233d60e01b815260040160405180910390fd5b81600003610fcd57604051631f2a200560e01b815260040160405180910390fd5b60038054906000610fdd83612482565b9091555060008181526007602090815260409182902080546001600160a01b0319166001600160a01b0388169081178255600182018790554260048301558351908152918201869052929350339184917f6d4365eeea2290a1fb5155f6f527bb01f4a2797dea12f20abc314effacafd202910160405180910390a35092915050565b3360009081526004602052604090205460ff1661108f576040516330cd747160e01b815260040160405180910390fd5b611097611f0d565b600d54600160a01b900460ff166110c1576040516310cf980d60e21b815260040160405180910390fd5b806000036110e257604051631f2a200560e01b815260040160405180910390fd5b600a546040516321e3780160e01b81523060048201526000916001600160a01b0316906321e3780190602401602060405180830381865afa15801561112b573d6000803e3d6000fd5b505050506040513d601f19601f8201168201806040525081019061114f919061241c565b9050806001146111725760405163019dc6e560e11b815260040160405180910390fd5b600954600d5461118f916001600160a01b03918216911684611f37565b600a5460405163d66a255360e01b81523060048201526000916001600160a01b03169063d66a255390602401602060405180830381865afa1580156111d8573d6000803e3d6000fd5b505050506040513d601f19601f820116820180604052508101906111fc919061241c565b600a546040516309019aaf60e31b81523060048201529192506000916001600160a01b039091169063480cd57890602401602060405180830381865afa15801561124a573d6000803e3d6000fd5b505050506040513d601f19601f8201168201806040525081019061126e919061241c565b90506000600a60009054906101000a90046001600160a01b03166001600160a01b0316637af110ba6040518163ffffffff1660e01b8152600401602060405180830381865afa1580156112c5573d6000803e3d6000fd5b505050506040513d601f19601f820116820180604052508101906112e9919061241c565b905060006112f786856124f1565b9050600082821161130957600161130b565b815b61131e8568056bc75e2d63100000612504565b611328919061251b565b600c54604051633da0dedf60e11b815260048101839052600f6024820152602a60448201529192506000916001600160a01b0390911690637b41bdbe90606401606060405180830381865afa158015611385573d6000803e3d6000fd5b505050506040513d601f19601f820116820180604052508101906113a9919061253d565b5050600b5460405163105a603760e21b8152600481018590526001600160a01b038084166024830181905260448301529293506000928392169063416980dc906064016040805180830381865afa158015611408573d6000803e3d6000fd5b505050506040513d601f19601f8201168201806040525081019061142c9190612574565b60095460405163dc283bb360e01b8152600481018e90526001600160a01b0380851660248301528084166044830152939550919350919091169063dc283bb390606401600060405180830381600087803b15801561148957600080fd5b505af115801561149d573d6000803e3d6000fd5b505050507f46f858e757ce7b229ab71d44e1391fb88cf93cadb679cc09b23bb0f023177c448a6040516114d291815260200190565b60405180910390a15050505050505050506114ed6001600055565b50565b3360009081526004602052604090205460ff16611520576040516330cd747160e01b815260040160405180910390fd5b611528611f0d565b600d54600160a01b900460ff16611552576040516310cf980d60e21b815260040160405180910390fd5b81158061155d575080155b1561157b57604051631f2a200560e01b815260040160405180910390fd5b8147101561159c576040516314ecd6c760e01b815260040160405180910390fd5b600a546040516321e3780160e01b81523060048201526000916001600160a01b0316906321e3780190602401602060405180830381865afa1580156115e5573d6000803e3d6000fd5b505050506040513d601f19601f82011682018060405250810190611609919061241c565b90508060010361162c57604051630683512f60e41b815260040160405180910390fd5b600954604051630631203b60e41b8152600481018490526000916001600160a01b03169063631203b090602401602060405180830381865afa158015611676573d6000803e3d6000fd5b505050506040513d601f19601f8201168201806040525081019061169a919061241c565b90506000600a60009054906101000a90046001600160a01b03166001600160a01b0316637af110ba6040518163ffffffff1660e01b8152600401602060405180830381865afa1580156116f1573d6000803e3d6000fd5b505050506040513d601f19601f82011682018060405250810190611715919061241c565b905060008161172484876125a3565b61172e91906125a3565b90506000816117468868056bc75e2d63100000612504565b611750919061251b565b600c54604051633da0dedf60e11b815260048101839052600f6024820152602a60448201529192506000916001600160a01b0390911690637b41bdbe90606401606060405180830381865afa1580156117ad573d6000803e3d6000fd5b505050506040513d601f19601f820116820180604052508101906117d1919061253d565b5050600b5460405163105a603760e21b8152600481018590526001600160a01b038084166024830181905260448301529293506000928392169063416980dc906064016040805180830381865afa158015611830573d6000803e3d6000fd5b505050506040513d601f19601f820116820180604052508101906118549190612574565b6009546040516305e74db360e31b8152600481018d90526001600160a01b03808516602483015280841660448301529395509193509190911690632f3a6d98908c906064016000604051808303818588803b1580156118b257600080fd5b505af11580156118c6573d6000803e3d6000fd5b5050604080518e8152602081018e90529081018b90527f8f92fe4c6ff32cb81e6a9c12f07f0e872afafb7e32f9a9fdba25cfafddbe3b6c9350606001915061190b9050565b60405180910390a150505050505050506119256001600055565b5050565b6060600680548060200260200160405190810160405280929190818152602001828054801561198157602002820191906000526020600020905b81546001600160a01b03168152600190910190602001808311611963575b5050505050905090565b600d54600090600160a01b900460ff166119a55750600090565b600a5460405163d66a255360e01b81523060048201526001600160a01b039091169063d66a25539060240161098b565b600d54600090600160a01b900460ff166119ef5750600090565b600a546040516321e3780160e01b81523060048201526001600160a01b03909116906321e3780190602401602060405180830381865afa158015611a37573d6000803e3d6000fd5b505050506040513d601f19601f82011682018060405250810190611a5b919061241c565b600114905090565b3360009081526004602052604090205460ff16611a93576040516330cd747160e01b815260040160405180910390fd5b600081815260076020526040902080546001600160a01b0316611ac95760405163635e873760e01b815260040160405180910390fd5b600381015460ff1615611aef57604051630dc1019760e01b815260040160405180910390fd5b6003810154610100900460ff1615611b1a576040516354e3762560e01b815260040160405180910390fd5b600082815260086020908152604080832033845290915290205460ff1615611b555760405163585eb56560e11b815260040160405180910390fd5b600082815260086020908152604080832033808552908352818420805460ff191660019081179091556002860180549182018155808652948490200180546001600160a01b031916821790559254905190815284917f2f0f51d2f12c71357e60d575d47e93e081dbaf32072245ab1e01540f0aadbf1a910160405180910390a35050565b600081815260076020908152604080832080546001820154600383015460048401546002850180548751818a0281018a0190985280885289986060988a988998899891976001600160a01b039091169691959460ff80831695610100909304169391869190830182828015611c7757602002820191906000526020600020905b81546001600160a01b03168152600190910190602001808311611c59575b505050505093509650965096509650965096505091939550919395565b611c9c611f0d565b34600003611cbd57604051631f2a200560e01b815260040160405180910390fd5b60405134815233907f2da466a7b24304f47e87fa2e1e5a81b9831ce54fec19055ce277ca2f39ba42c49060200160405180910390a26109436001600055565b60068181548110611d0c57600080fd5b6000918252602090912001546001600160a01b0316905081565b3360009081526004602052604090205460ff16611d56576040516330cd747160e01b815260040160405180910390fd5b611d5e611f0d565b600081815260076020526040902080546001600160a01b0316611d945760405163635e873760e01b815260040160405180910390fd5b600381015460ff1615611dba57604051630dc1019760e01b815260040160405180910390fd5b6003810154610100900460ff1615611de5576040516354e3762560e01b815260040160405180910390fd5b60028054908201541015611e0c576040516359fa4a9360e01b815260040160405180910390fd5b8060010154471015611e31576040516314ecd6c760e01b815260040160405180910390fd5b60038101805460ff191660019081179091558154908201546040516000926001600160a01b031691908381818185875af1925050503d8060008114611e92576040519150601f19603f3d011682016040523d82523d6000602084013e611e97565b606091505b5050905080611eb9576040516312171d8360e31b815260040160405180910390fd5b815460018301546040519081526001600160a01b039091169084907f3b7c90df35b419337cff0919fe91849006607bb66c4373623f06f9d48c1ebb989060200160405180910390a350506114ed6001600055565b600260005403611f3057604051633ee5aeb560e01b815260040160405180910390fd5b6002600055565b604051636eb1769f60e11b81523060048201526001600160a01b0383811660248301526000919085169063dd62ed3e90604401602060405180830381865afa158015611f87573d6000803e3d6000fd5b505050506040513d601f19601f82011682018060405250810190611fab919061241c565b9050611fc18484611fbc85856125a3565b611fc7565b50505050565b604080516001600160a01b038416602482015260448082018490528251808303909101815260649091019091526020810180516001600160e01b031663095ea7b360e01b179052612018848261207b565b611fc157604080516001600160a01b038516602482015260006044808301919091528251808303909101815260649091019091526020810180516001600160e01b031663095ea7b360e01b1790526120719085906120cc565b611fc184826120cc565b6000806000806020600086516020880160008a5af192503d915060005190508280156120c0575081156120b157806001146120c0565b6000866001600160a01b03163b115b93505050505b92915050565b600080602060008451602086016000885af1806120ef576040513d6000823e3d81fd5b50506000513d91508115612107578060011415612114565b6001600160a01b0384163b155b15611fc157604051635274afe760e01b81526001600160a01b038516600482015260240160405180910390fd5b6001600160a01b03811681146114ed57600080fd5b60006020828403121561216857600080fd5b813561217381612141565b9392505050565b600080600080600060a0868803121561219257600080fd5b853561219d81612141565b945060208601356121ad81612141565b935060408601356121bd81612141565b925060608601356121cd81612141565b915060808601356121dd81612141565b809150509295509295909350565b6000602082840312156121fd57600080fd5b5035919050565b634e487b7160e01b600052602160045260246000fd5b602081016003831061223c57634e487b7160e01b600052602160045260246000fd5b91905290565b60008083601f84011261225457600080fd5b50813567ffffffffffffffff81111561226c57600080fd5b6020830191508360208260051b850101111561228757600080fd5b9250929050565b6000806000806000606086880312156122a657600080fd5b853567ffffffffffffffff808211156122be57600080fd5b6122ca89838a01612242565b909750955060208801359150808211156122e357600080fd5b506122f088828901612242565b96999598509660400135949350505050565b6000806040838503121561231557600080fd5b823561232081612141565b946020939093013593505050565b6000806040838503121561234157600080fd5b82359150602083013561235381612141565b809150509250929050565b6000806040838503121561237157600080fd5b50508035926020909101359150565b600081518084526020808501945080840160005b838110156123b95781516001600160a01b031687529582019590820190600101612394565b509495945050505050565b6020815260006121736020830184612380565b60018060a01b038716815285602082015260c0604082015260006123fe60c0830187612380565b941515606083015250911515608083015260a0909101529392505050565b60006020828403121561242e57600080fd5b5051919050565b634e487b7160e01b600052603260045260246000fd5b60006020828403121561245d57600080fd5b81356003811061217357600080fd5b634e487b7160e01b600052601160045260246000fd5b6000600182016124945761249461246c565b5060010190565b6040808252810183905260008460608301825b868110156124de5782356124c181612141565b6001600160a01b03168252602092830192909101906001016124ae565b5060209390930193909352509392505050565b818103818111156120c6576120c661246c565b80820281158282048414176120c6576120c661246c565b60008261253857634e487b7160e01b600052601260045260246000fd5b500490565b60008060006060848603121561255257600080fd5b835161255d81612141565b602085015160409095015190969495509392505050565b6000806040838503121561258757600080fd5b825161259281612141565b602084015190925061235381612141565b808201808211156120c6576120c661246c56fea26469706673582212204f5274a158ca6b86479cece5382bb8901ebf5edef0da455bf4fcba8cf779495264736f6c63430008140033a26469706673582212208242477ca450a2b9d238d76df2069e8a83f327e60d891f7dc6d0e35340d6183e64736f6c63430008140033",
  "linkReferences": {},
  "deployedLinkReferences": {}
}